{
    "contractName": "RunningStats",
    "abi": [
        {
            "inputs": [
                {
                    "internalType": "uint256",
                    "name": "_km",
                    "type": "uint256"
                }
            ],
            "name": "logRun",
            "outputs": [],
            "stateMutability": "nonpayable",
            "type": "function"
        },
        {
            "inputs": [],
            "name": "runs",
            "outputs": [
                {
                    "internalType": "uint256",
                    "name": "",
                    "type": "uint256"
                }
            ],
            "stateMutability": "view",
            "type": "function"
        },
        {
            "inputs": [],
            "name": "totalKm",
            "outputs": [
                {
                    "internalType": "uint256",
                    "name": "",
                    "type": "uint256"
                }
            ],
            "stateMutability": "view",
            "type": "function"
        }
    ],
    "bytecode": "6080806040523461001c575f80555f60015560ec90816100218239f35b5f80fdfe608060405260043610156010575f80fd5b5f803560e01c80631df9f43e146070578063b5b24fd41460545763fc3b7e70146037575f80fd5b346051578060031936011260515760209054604051908152f35b80fd5b5034605157806003193601126051576020600154604051908152f35b503460515760203660031901126051578054600435810180911160a25781556001546001810180911160a25760015580f35b634e487b7160e01b82526011600452602482fdfea2646970667358221220b068c088e206457b39b0bb7bf381987157b441657b6cf5e40b7869990e83356c64736f6c63430008140033",
    "sourcePath": "c:/Users/Грязный Джо/Desktop/newVarik/clean-hardhat/contracts/RunningStats.sol",
    "compiler": {
        "name": "solc",
        "version": "0.8.20+commit.a1b79de6"
    },
    "functionHashes": {
        "logRun(uint256)": "1df9f43e",
        "runs()": "b5b24fd4",
        "totalKm()": "fc3b7e70"
    },
    "gasEstimates": {
        "creation": {
            "codeDepositCost": "47200",
            "executionCost": "10115",
            "totalCost": "57315"
        },
        "external": {
            "logRun(uint256)": "48607",
            "runs()": "2276",
            "totalKm()": "2293"
        }
    }
}